:100000000C94E2000C940A010C940A010C940A016D
:100010000C940A010C940A010C940A010C940A0134
:100020000C940A010C940A010C940A010C944807E0
:100030000C940A010C940A010C940A010C940A0114
:100040000C94B3020C940A010C94CC040C94A604F6
:100050000C940A010C940A010C940A010C940A01F4
:100060000C94AC070C940A01005EBCE2613FDD8396
:10007000C29C7E20A3FD1F419DC3217FFCA2401E88
:100080005F01E3BD3E6082DC237D9FC1421CFEA078
:10009000E1BF5D0380DE3C62BEE0025CDF81633D68
:1000A0007C22C09E1D43A1FF4618FAA427799BC558
:1000B00084DA3866E5BB5907DB856739BAE4065848
:1000C0001947A5FB7826C49A653BD987045AB8E638
:1000D000A7F91B45C6987A24F8A6441A99C7257B28
:1000E0003A6486D85B05E7B98CD2306EEDB3510F18
:1000F0004E10F2AC2F7193CD114FADF3702ECC9208
:10010000D38D6F31B2EC0E50AFF1134DCE90722CF7
:100110006D33D18F0C52B0EE326C8ED0530DEFB1E7
:10012000F0AE4C1291CF2D73CA947628ABF51749D7
:100130000856B4EA6937D58B5709EBB536688AD4C7
:1001400095CB2977F4AA4816E9B7550B88D6346AB7
:100150002B7597C94A14F6A8742AC896154BA9F7A7
:10016000B6E80A54D7896B35000000080002010088
:100170000003040700000000000000000000000071
:10018000250028002B0000000000240027002A0082
:1001900000000000230026002900040404040404D5
:1001A0000404020202020202030303030303010226
:1001B00004081020408001020408102001020408F5
:1001C0001020E31211241FBECFEFD8E0DEBFCDBF59
:1001D00023E0ACE8B1E001C01D92AF37B207E1F710
:1001E00011E0A0E0B1E0ECE5FDE202C005900D9267
:1001F000AC38B107D9F710E0C2EED0E004C02197C7
:10020000FE010E943C14C13ED107C9F70E94D20DE5
:100210000C94AC160C940000CF92DF92EF92FF92F8
:100220000F931F93CF93DF936C017A018B01C0E092
:10023000D0E0CE15DF0589F0D8016D918D01D60192
:10024000ED91FC910190F081E02DC6010995892B7B
:1002500011F47E0102C02196ECCFC701DF91CF914E
:100260001F910F91FF90EF90DF90CF9008950E9423
:1002700085166115710579F0FB0101900020E9F701
:100280003197AF01461B570BDC01ED91FC910280C9
:10029000F381E02D099480E090E008954F925F9201
:1002A0006F927F92EF92FF920F931F93CF93DF9302
:1002B000CDB7DEB7A1970FB6F894DEBF0FBECDBFA6
:1002C0007C01FA01CB0119A2223008F42AE08E0148
:1002D0000F5D1F4F422E512C612C712CBF01A301C9
:1002E00092010E948A16F901CA01015011096A306F
:1002F00014F4605D01C0695CD8016C93232B242B3E
:10030000252B61F7B801C7010E943901A1960FB6EC
:10031000F894DEBF0FBECDBFDF91CF911F910F913B
:10032000FF90EF907F906F905F904F900895CF92E5
:10033000DF92EF92FF920F931F93CF93DF93EC0125
:100340006A017B01E881F9810190F081E02D6DE285
:1003500009958C0144275527BA014C195D096E098E
:100360007F092AE0CE010E944E01800F911FDF918C
:10037000CF911F910F91FF90EF90DF90CF90089554
:100380004F925F926F927F928F929F92AF92BF92A5
:10039000CF92DF92EF92FF92CF93DF93EC016A014D
:1003A0007B01B22E9A01AB01C701B6010E948016F3
:1003B000882319F06CE471E027C026013701E89426
:1003C00077F82FEF3FEF4FE75FE7C301B2010E94DD
:1003D000801681110DC02FEF3FEF4FE75FE7C3019C
:1003E000B2010E94AF1418161CF460E571E00CC055
:1003F0002FEF3FEF4FE75FE4C701B6010E940E16F3
:1004000018169CF464E571E0CE01DF91CF91FF9066
:10041000EF90DF90CF90BF90AF909F908F907F90A4
:100420006F905F904F900C9439012FEF3FEF4FE7A3
:100430005FECC701B6010E94AF1487FDE3CF20E057
:1004400030E0A901C701B6010E94AF1487FF0EC0BA
:10045000E881F9810190F081E02D6DE2CE010995EE
:100460004C01F7FAF094F7F8F09402C0812C912C2B
:10047000A12C60E070E080E09FE3AB1441F020E04D
:1004800030E040E251E40E94B414A394F6CF9B0103
:10049000AC01C701B6010E9443142B013C010E942C
:1004A0002D156B017C010E945C159B01AC01C30101
:1004B000B2010E9442142B013C012AE0B701A601BF
:1004C000CE010E944E017C01E80CF91CBB2039F0E2
:1004D00068E571E0CE010E943901E80EF91EDB2CBF
:1004E000DD2029F120E030E040E251E4C301B20117
:1004F0000E9413162B013C010E942D154B01A12CCB
:10050000B12C2AE0B501A401CE010E944E01E80EF3
:10051000F91EC501B4010E945C159B01AC01C30129
:10052000B2010E9442142B013C01DA94D9CFC701D9
:10053000DF91CF91FF90EF90DF90CF90BF90AF9081
:100540009F908F907F906F905F904F9008950C9444
:10055000390186E692E00E941F0321E0892B09F40D
:1005600020E0822F08951F920F920FB60F92112450
:100570002F933F938F939F93AF93BF9380911302D9
:1005800090911402A0911502B09116023091A6012B
:1005900023E0230F2D3720F40196A11DB11D05C0C6
:1005A00026E8230F0296A11DB11D2093A60180937A
:1005B000130290931402A0931502B0931602809137
:1005C000170290911802A0911902B0911A02019697
:1005D000A11DB11D8093170290931802A0931902D8
:1005E000B0931A02BF91AF919F918F913F912F913C
:1005F0000F900FBE0F901F901895FC01918D828D6A
:10060000981761F0828DDF01A80FB11D5D968C9166
:10061000928D9F5F9F73928F90E008958FEF9FEF71
:100620000895FC01918D828D981731F0828DE80F2D
:10063000F11D858D90E008958FEF9FEF0895FC01E7
:10064000918D228D892F90E0805C9F4F821B9109B4
:100650008F7399270895FC01848DDF01A80FB11DC8
:10066000A35ABF4F2C91848D90E001968F739927E8
:10067000848FA689B7892C93A089B1898C918064D5
:100680008C93938D848D981306C00288F389E02D96
:1006900080818F7D80830895EF92FF920F931F9347
:1006A000CF93DF93EC0181E0888F9B8D8C8D981325
:1006B00005C0E889F989808185FD24C0F62E0B8D5F
:1006C00010E00F5F1F4F0F731127E02E8C8DE81283
:1006D0000CC00FB607FCFACFE889F989808185FF45
:1006E000F5CFCE010E942B03F1CF8B8DFE01E80FD9
:1006F000F11DE35AFF4FF0820B8FEA89FB8980815D
:10070000806207C0EE89FF896083E889F98980816A
:100710008064808381E090E0DF91CF911F910F9101
:10072000FF90EF900895CF93DF93EC01888D88239D
:10073000C9F0EA89FB89808185FD05C0A889B9894E
:100740008C9186FD0FC00FB607FCF5CF808185FF29
:10075000F2CFA889B9898C9185FFEDCFCE010E9497
:100760002B03E7CFDF91CF91089580E090E0892BB4
:1007700029F00E94A90281110C9400000895FC0147
:1007800090810180F281E02D892F809560FF12C059
:10079000F8942281822382838181892B8183A3E241
:1007A000B0E01197F1F78281982B9283789487EDCE
:1007B00090E011C0F8942281822382838181892B69
:1007C0008183AFEFB0E01197F1F78281982B92838C
:1007D00078948FE090E00197F1F70895089581E013
:1007E00090E030918D0120918C01321710F480E05F
:1007F00090E0919581959109089580918D01909156
:100800008C01891730F48F5F80938D0180E090E038
:1008100008958FEF9FEF089580918C0190E02091D3
:100820008D01821B9109089585ED8093BC00809114
:10083000BC0084FDFCCF1092410208954091C90193
:10084000262F30E0240F311D21323105DCF42091B8
:1008500041022430C9F4FC0180E090E0861758F48E
:100860003091C9012191DC01A955BE4FA30FB11DE3
:100870002C930196F3CF8091C901680F6093C90151
:1008800080E0089581E0089582E00895CF92DF929C
:10089000EF92FF920F931F93CF93DF937C01262F4C
:1008A000972F8A0180914202882391F0C62FD72F7B
:1008B0006E01C40ED51ECC15DD0571F06991D7010E
:1008C000ED91FC910190F081E02DC7010995F3CFE6
:1008D000642F822F0E941E04C801DF91CF911F91C7
:1008E0000F91FF90EF90DF90CF900895CF93DF931B
:1008F0001F92CDB7DEB76983209142022223D1F047
:1009000020916502203240F021E030E0FC01338389
:10091000228380E090E015C080914302E82FF0E050
:10092000EC5BFD4F998190838F5F809343028093AE
:10093000650205C061E0CE0101960E941E0481E0BF
:1009400090E00F90DF91CF91089508951F920F923C
:100950000FB60F9211242F933F934F935F936F9392
:100960007F938F939F93AF93BF93EF93FF9386E60D
:1009700092E00E942B03FF91EF91BF91AF919F9165
:100980008F917F916F915F914F913F912F910F9038
:100990000FBE0F901F9018951F920F920FB60F92D7
:1009A00011242F938F939F93EF93FF93E0917602FF
:1009B000F09177028081E0917C02F0917D0282FDCE
:1009C00012C0908180917F028F5F8F73209180028F
:1009D000821751F0E0917F02F0E0EA59FD4F958FC8
:1009E00080937F0201C08081FF91EF919F918F9151
:1009F0002F910F900FBE0F901F901895682F83E0D6
:100A000093E00C947604CF93DF931F92CDB7DEB7BB
:100A1000FC019185906281E0809342029093640290
:100A2000109243021092650289E069830E94FE04DD
:100A30006981862F0E94FE040E94FF088111FCCF6D
:100A40000F90DF91CF910895CF93DF931F92CDB791
:100A5000DEB7FC019185906281E080934202909321
:100A60006402109243021092650283E169830E943E
:100A7000FE046981862F0E94FE040E94FF088111F6
:100A8000FCCF0F90DF91CF910895FF920F931F93AA
:100A9000CF93DF938C01C62FF42EFC018485813027
:100AA000B1F56385C4FD6061C5FD6860C6FD646025
:100AB000C7FD6260D62FFF2011F0D06A01C0D0625E
:100AC0006D2FC8010E9424056D2F6F7DC8010E9403
:100AD0002405F8016385C0FD6061C1FD6860C2FD49
:100AE0006460C3FD6260C62FFF2011F0C06A01C0C0
:100AF000C0626C2FC8010E9424056C2F6F7DC80155
:100B0000DF91CF911F910F91FF900C942405607F8E
:100B100070E075956795442311F0666001C06460CC
:100B2000F801858183FD02C0D0E001C0D0E8D62B5A
:100B30006D2FC8010E9403056D2F6B7FC8010E94B5
:100B40000305CF70CC0FCC0FCC0FFF2011F0C66087
:100B500001C0C460F801858183FD02C060E001C06E
:100B600060E8C62B6C2FC8010E9403056C2F6B7FB9
:100B7000C801DF91CF911F910F91FF900C94030555
:100B800041E00E94450581E090E00895DC01E0E04D
:100B9000615038F08D91E827F0E0E859FF4FE4917B
:100BA000F7CF8E2F0895CF92DF92EF92FF920F939F
:100BB0001F93CF93DF931F92CDB7DEB76C01E62E64
:100BC00008E010E0FF24F39461E08F2D8E2109F4FA
:100BD00060E0C60149830E94BF03FF0C0150110968
:100BE00049810115110581F7411115C0F894D6010D
:100BF0001196ED91FC91129791818C9180958923AA
:100C000081831196ED91FC91129792818C91809540
:100C10008923828378940F90DF91CF911F910F9158
:100C2000FF90EF90DF90CF900895CF92DF92EF92F8
:100C3000FF920F931F93CF93DF931F92CDB7DEB731
:100C40008C01F62E40E065E579830E94D305CF2C18
:100C50007981D72E760188E0E80EF11CF6016191CA
:100C60006F0140E0C8010E94D305CE14DF04B1F744
:100C70000F90DF91CF911F910F91FF90EF90DF9038
:100C8000CF900895FC0190810180F281E02DF894CD
:100C90008181892B81832281892F8095282322833A
:100CA000A7E0B0E01197F1F7218182238183A3E2CD
:100CB000B0E01197F1F780817894EFECF0E0319794
:100CC000F1F7982381E009F480E00895EF92FF9214
:100CD0000F931F93CF93DF937C0108E010E0C0E0F7
:100CE000D1E0C7010E9442068111CD2BDD0F0150DA
:100CF0001109B9F78C2FDF91CF911F910F91FF90C0
:100D0000EF900895FC0190810180F281E02DF8942C
:100D10008181292F20958223818378948DE743E078
:100D200050E0815021F1DA011197F1F73081392338
:100D3000C1F3F8948281822382838181892B81830C
:100D40007894ABE7B7E01197F1F7F8948181282305
:100D50002183A3E1B1E01197F1F78081982381E02D
:100D600009F080E07894E3E6F6E03197F1F7089532
:100D7000AF92BF92CF92DF92EF92FF920F931F93A9
:100D8000CF93DF931F92CDB7DEB75C01D62EE72E4F
:100D9000FC018585811105C0C5010E948206811173
:100DA00006C0F50113861586148680E065C040E014
:100DB00060EFC5010E94D30501E0F12CC12C11E0C8
:100DC000C5010E944206682FC50169830E94420640
:100DD0006981613019F48130B9F433C04F2D50E08E
:100DE00068131BC0F5018385181730F4E40FF51F55
:100DF0008381802349F402C0181731F060E0193074
:100E000058F4F501148708C0F501EF0DF11D838139
:100E1000802B838361E009C0C12EF501E40FF51F2B
:100E20009381802F809589238383C5010E94BF030E
:100E30001F5F000F11F4F39401E0F7E0FF1508F0D5
:100E4000BFCF113408F4ADCFF501C386C11002C085
:100E500081E08587F5018381882309F4A2CFD5013C
:100E60001396ED2DFE2D9501255F3F4F8D918193BA
:100E7000A217B307D9F781E00F90DF91CF911F91AF
:100E80000F91FF90EF90DF90CF90BF90AF900895BB
:100E90001F920F920FB60F9211242F933F938F93AF
:100EA0009F93EF93FF938091120287FF05C01092EA
:100EB00085001092840005C08091120287FD809108
:100EC0001202809112028F5F8093120280911202AF
:100ED00087FF20C0809112028C30E4F420918400BE
:100EE0003091850080911202082E000C990BFC01B4
:100EF000EE0FFF1F8E0F9F1FFC01E251FE4F8181FD
:100F00009281820F931F9093890080938800809133
:100F1000120217C08091840090918500049680345D
:100F20009C4918F480E49CE905C08091840090916C
:100F30008500049690938900809388008FEF8093BA
:100F40001202FF91EF919F918F913F912F910F90FE
:100F50000FBE0F901F9018951F920F920FB60F9211
:100F600011242F933F934F935F936F937F938F93AE
:100F70009F93AF93BF93EF93FF938091B900887FC6
:100F8000803609F49CC068F5883209F45BC090F49F
:100F9000803109F454C038F4882309F4F6C088304D
:100FA00009F44DC0F6C0883109F44CC0803209F410
:100FB0005DC0EFC0803409F468C048F4803309F4A0
:100FC00055C0883309F0E5C080933F02D8C0803512
:100FD00009F44FC0883509F45DC0883409F0D9C0E0
:100FE000D6C0883909F4C7C0A8F4883709F467C0A7
:100FF00038F4883609F463C0803709F460C0C9C08A
:10100000883809F4B8C0803909F45FC0803809F025
:10101000C0C05BC0803B09F486C038F4803A09F454
:1010200066C0883A09F47FC0B4C0803C09F4A7C008
:10103000883C09F4A4C0883B09F48AC0AAC0809106
:101040001C0210C090913E0280913D02981770F5ED
:10105000E0913E0281E08E0F80933E02F0E0E35E7D
:10106000FD4F80818093BB0085EC86C080933F025A
:101070008EC0E0913E0281E08E0F80933E0280910F
:10108000BB00F0E0E35EFD4F808390913E028091D3
:101090003D026EC0E0913E0281E08E0F80933E02E1
:1010A0008091BB00F0E0E35EFD4F808380914002C1
:1010B00081116DC081E080931B0284EA61C083E0EE
:1010C000809341021092ED01CFCF8091ED018032EB
:1010D00008F051C0E091ED0181E08E0F8093ED01A9
:1010E0008091BB00F0E0E353FE4F8083BDCF85ECE1
:1010F0008093BC00109241028091ED01803230F467
:10110000E091ED01F0E0E353FE4F10826091ED01BC
:1011100070E0E091CB01F091CC018DEC91E009956C
:101120001092ED0136C084E0809341021092CA0112
:101130001092C901E091C701F091C8010995809111
:10114000C901811105C081E08093C9011092A701F6
:10115000E091CA0181E08E0F8093CA01F0E0E95569
:10116000FE4F80818093BB009091CA018091C9019C
:10117000981708F479CF85E88093BC000AC085EC05
:101180008093BC001092410204C010923F020E9462
:101190001404FF91EF91BF91AF919F918F917F9137
:1011A0006F915F914F913F912F910F900FBE0F90D4
:1011B0001F9018953FB7F8948091170290911802EC
:1011C000A0911902B0911A0226B5A89B05C02F3F25
:1011D00019F00196A11DB11D3FBFBA2FA92F982F5D
:1011E0008827820F911DA11DB11DBC01CD0142E0D8
:1011F000660F771F881F991F4A95D1F70895209190
:10120000650290916402213208F04AC08091410247
:101210008111FCCF32E03093410231E03093400243
:101220003FEF30933F0210923E0220933D02A4E430
:10123000B2E04DE152E0FA013E2F341B321718F4B0
:101240003D913193F9CF10921C0220911C02990F0D
:10125000922B90931C0290911B02913061F410929A
:101260001B0290911C029093BB009091BC0093FDD7
:10127000F8CF95EC01C095EE9093BC00909141029F
:101280009230E1F390913F029F3F79F080913F02CD
:10129000803241F080913F02803331F084E005C01C
:1012A00081E003C082E001C083E01092430210920B
:1012B0006502109242020895CF93DF93CDB7DEB757
:1012C00028970FB6F894DEBF0FBECDBF28E0E0E14F
:1012D000F1E0DE01119601900D922A95E1F720913F
:1012E0005703261710F46FEF620FFE013196E60FD9
:1012F000F11DE60FF11D9081682F690F606840E0D5
:1013000080E593E028960FB6F894DEBF0FBECDBF00
:10131000DF91CF910C944505CF9390917003819507
:10132000C82FC927C270C927C09370039C17B9F092
:1013300081E08093420280E2809364021092430233
:101340001092650262E183E093E00E9476046C2FC4
:1013500083E093E00E947604CF910C94FF08CF9134
:101360000895EF92FF920F931F93CF93DF937C0129
:101370008B01CDE5D3E08D819E810E948206B7016D
:101380008D819E810E94150640E06EEB8D819E81CD
:101390000E94D3058D819E810E946606F80180839C
:1013A0008D819E810E946606F80181838D819E81D8
:1013B0000E946606F80182838D819E810E946606E6
:1013C000F80183838D819E810E946606F8018483E3
:1013D0008D819E810E946606F80185838D819E81A4
:1013E0000E946606F80186838D819E810E946606B2
:1013F000F80187838D819E810E946606F8018087AF
:101400008D819E81DF91CF911F910F91FF90EF9081
:101410000C948206CF93DF93EB010E94B10968E040
:10142000CE010E94C60591E02885821390E0892FA5
:10143000DF91CF9108950F931F93CF93DF938C018A
:10144000D62FE0916203F09163031386158614860C
:10145000DF011B9633961E92AE17BF07E1F7C0E07F
:10146000B80180916203909163030E94B8068111D4
:1014700002C080E010C0CD130AC067E0C8010E941E
:10148000C605F8019781891302C081E004C0CF5FCF
:10149000DC1778F3E5CFDF91CF911F910F9108957D
:1014A000CF93DF93CDB7DEB729970FB6F894DEBFA1
:1014B0000FBECDBFFC0120812031D9F0BE016F5F8E
:1014C0007F4F0E940A0A882381F08D818F3359F063
:1014D00018F48F3171F009C08F3519F08F3739F05A
:1014E00004C08BE007C08AE005C080E003C08CE048
:1014F00001C089E029960FB6F894DEBF0FBECDBFBC
:10150000DF91CF9108954F925F926F927F928F9269
:101510009F92AF92BF92CF92DF92EF92FF92CF93C2
:10152000DF93CDB7DEB761970FB6F894DEBF0FBE7D
:10153000CDBF60E0CE010A960E941B0ABE016F5F1C
:101540007F4FCE010A960E940A0A882309F489C0B7
:101550008A8190E0982F88272981822B2A85223240
:10156000B9F12832A9F1203109F081C0F884BC0119
:1015700075956795072E000C880B990B0E945E15D8
:1015800020E030E040E85EE30E9442144B015C0141
:101590008F2D90E02F81821B9109BC01990F880B40
:1015A000990B0E945E152B013C016F2D70E080E0CD
:1015B00090E00E945C159B01AC01C301B2010E9446
:1015C000B4149B01AC01C501B4010E94431436C0A0
:1015D0002D812F33B1F1A0F42F3109F048C0BC01A7
:1015E00023E0759567952A95E1F7072E000C880B87
:1015F000990B0E945E1520E030E040E05FE31CC0E4
:101600002F3569F02F3799F5BC01990F880B990B8D
:101610000E945E1520E030E040E85DE30DC0BC01B3
:1016200075956795072E000C880B990B0E945E1527
:1016300020E030E040E05EE30E9413166B017C0185
:1016400016C0BC017595679575956795072E000CBA
:10165000880B990B0E945E1520E030E040E85EE3C5
:10166000EBCFC12CD12C8EEFE82E82ECF82EC701E7
:10167000B60161960FB6F894DEBF0FBECDBFDF9105
:10168000CF91FF90EF90DF90CF90BF90AF909F9061
:101690008F907F906F905F904F90089590E0FC0145
:1016A000E859FE4F3491FC01E255FE4F2491FC01B4
:1016B000E656FE4FE491EE2309F43BC0332339F1A3
:1016C000333091F038F43130A9F0323001F584B57F
:1016D0008F7D12C0373091F03830A1F03430B9F43A
:1016E000809180008F7D03C0809180008F778093F0
:1016F00080000DC084B58F7784BD09C08091B00093
:101700008F7703C08091B0008F7D8093B000F0E0B0
:10171000EE0FFF1FE458FE4FA591B4918FB7F894D8
:10172000EC91611103C020952E2301C02E2B2C9328
:101730008FBF08958F929F92AF92BF92CF92DF9208
:10174000EF92FF926B017C010E94DA084B015C0171
:10175000C114D104E104F104F1F00E94DA08DC01C3
:10176000CB0188199909AA09BB09883E9340A105B4
:10177000B10570F321E0C21AD108E108F10888EE42
:10178000880E83E0981EA11CB11CC114D104E10491
:10179000F10419F7DDCFFF90EF90DF90CF90BF906D
:1017A000AF909F908F900895FF920F931F93CF93C8
:1017B000DF93CDB7DEB729970FB6F894DEBF0FBE23
:1017C000CDBF8C01BE016F5F7F4F0E940A0AF82EC9
:1017D000882309F457C0F8018081803109F452C090
:1017E0008FE78D8380916203909163030E9482064C
:1017F000B80180916203909163030E94150640E056
:101800006EE480916203909163030E94D30540E0EF
:101810006B8180916203909163030E94D30540E045
:101820006C8180916203909163030E94D305F8015B
:101830008081803141F040E06D8180916203909120
:1018400063030E94D30580916203909163030E9419
:10185000820640915D0368E4809162039091630386
:101860000E94D30580915D03882331F06AE070E027
:1018700080E090E00E949A0B809162039091630354
:101880000E9482068F2D29960FB6F894DEBF0FBEF8
:10189000CDBFDF91CF911F910F91FF90089580915F
:1018A0006203909163030E94820640E06CEC809199
:1018B0006203909163030E94D30540915D0364E449
:1018C00080916203909163030E94D30580915F032E
:1018D0008823E9F080915E038A3049F08B3061F013
:1018E000893079F46EE570E080E090E00EC06CEB3A
:1018F00070E080E090E009C067E771E080E090E090
:1019000004C06EEE72E080E090E00C949A0B0895B3
:101910002FB7F89460911302709114028091150210
:10192000909116022FBF08952F923F924F925F928F
:101930006F927F928F929F92AF92BF92CF92DF92DF
:10194000EF92FF920F931F93CF93DF93CDB7DEB744
:1019500029970FB6F894DEBF0FBECDBF30904F036E
:10196000311002C0312C04C10E94880C69837A8333
:101970008B839C838091370390913803A091390326
:10198000B0913A0349815A816B817C81481B590B84
:101990006A0B7B0B8091430390914403A091450314
:1019A000B0914603481759076A077B07D8F2E091C0
:1019B0003103F091320380809180A280B380E09166
:1019C0003503F0913603A501940160817181828114
:1019D00093810E9442142B013C01209127033091F6
:1019E00028034091290350912A030E941316209145
:1019F0003B0330913C0340913D0350913E030E94D4
:101A000043146B017C0160933B0370933C03809310
:101A10003D0390933E0310914B0380914C038987C3
:101A200020904D0300914E03212F382F422D502F2F
:101A3000C701B6010E940E1618162CF4812F998545
:101A4000A22DB02F18C08091470390914803A09118
:101A50004903B0914A038D839E83AF83B8879C016D
:101A6000AD01C701B6010E94AF1487FF0CC08D8184
:101A70009E81AF81B88580933B0390933C03A093F4
:101A80003D03B0933E032091230330912403409102
:101A9000250350912603C301B2010E941316209121
:101AA0003B0330913C0340913D0350913E030E9423
:101AB00043146B017C0120913F033091400340911E
:101AC000410350914203C501B4010E944214209188
:101AD0002B0330912C0340912D0350912E030E9433
:101AE00013169B01AC01C701B6010E9442146B01A1
:101AF0007C01212F3985422D502F0E940E16181679
:101B0000BCF01091470390914803998720904903B6
:101B100000914A03212F392F422D502FB601C701C2
:101B20000E94AF1487FD04C01C2DD9862E2C0F2DCA
:101B3000E0913303F0913403812F9985A22DB02FCA
:101B400080839183A283B38380923F03909240036A
:101B5000A0924103B092420389819A81AB81BC81FA
:101B60008093370390933803A0933903B0933A03DB
:101B7000832D29960FB6F894DEBF0FBECDBFDF913F
:101B8000CF911F910F91FF90EF90DF90CF90BF907A
:101B9000AF909F908F907F906F905F904F903F900D
:101BA0002F900895CF93DF93CDB7DEB761970FB62F
:101BB000F894DEBF0FBECDBF789484B5826084BD3B
:101BC00084B5816084BD85B5826085BD85B5816041
:101BD00085BD80916E00816080936E0010928100BF
:101BE000809181008260809381008091810081607A
:101BF000809381008091800081608093800080913B
:101C0000B10084608093B1008091B00081608093C6
:101C1000B00080917A00846080937A0080917A008D
:101C2000826080937A0080917A00816080937A004C
:101C300080917A00806880937A001092C100E091D0
:101C40007602F091770282E08083E0917202F09157
:101C500073021082E0917402F09175028FEC808320
:101C600010927E02E0917A02F0917B0286E08083FE
:101C7000E0917802F0917902808180618083E09127
:101C80007802F0917902808188608083E091780207
:101C9000F0917902808180688083E0917802F091F0
:101CA000790280818F7D808311E010935C0362E371
:101CB00070E080E090E00E949A0B10928D011092EB
:101CC0008C0110924302109265021092410210930F
:101CD000400210921B0261E082E10E944E0B61E023
:101CE00083E10E944E0B8091B9008E7F8093B900F2
:101CF0008091B9008D7F8093B90088E48093B8000B
:101D000085E48093BC0010915C03113031F5809123
:101D1000590380621093420280936402109243023E
:101D20001092650280E00E94FE0480E00E94FE04A2
:101D30000E94FF08809159038062109342028093B1
:101D40006402109243021092650281E00E94FE0438
:101D500080E00E94FE040E94FF0880915403886086
:101D60008093540384E0809357031092580380912A
:101D70005C038130E1F410925B0310925A0313E08C
:101D800068E380E593E00E94240568E180E593E044
:101D90000E9424051150A1F768E280E593E00E94BB
:101DA000240568E080E593E00E94240528C06CE9E2
:101DB00080E593E00E94030568E980E593E00E94D6
:101DC00003056CE980E593E00E94030568E980E57E
:101DD00093E00E9403056CE980E593E00E9403050F
:101DE00068E980E593E00E94030564E980E593E0FB
:101DF0000E94030560E980E593E00E94030565E029
:101E000070E080E090E00E949A0B60915403606261
:101E100040E080E593E00E94450565E070E080E0E9
:101E200090E00E949A0B60915403606240E080E56C
:101E300093E00E94450565E070E080E090E00E943C
:101E40009A0B8CE08093550340E06CE080E593E0D2
:101E50000E94450540E061E080E593E00E94450571
:101E60008BE39FE10197F1F782E08093560340E016
:101E700066E080E593E00E9445056AE571E080E553
:101E800093E00E94A70260ED77E080E090E00E947E
:101E90009A0B80914F03811148C0E0913303F09178
:101EA0003403C080D180E280F380C0923B03D092A3
:101EB0003C03E0923D03F0923E03E0913103F09148
:101EC000320380819181A281B38180933F039093FB
:101ED0004003A0934103B093420380904B03909042
:101EE0004C03A0904D03B0904E03A5019401C7018F
:101EF000B6010E940E16181684F080904703909049
:101F00004803A0904903B0904A03A5019401C7017A
:101F1000B6010E94AF1487FF08C080923B039092E5
:101F20003C03A0923D03B0923E0381E080934F03B7
:101F3000E0916203F0916303138615861486DF0136
:101F40001B9633961E92AE17BF07E1F710926103FE
:101F500011E0BE01665F7F4F809162039091630341
:101F60000E94B806882309F451C067E0CE010A96A2
:101F70000E94C60599898913ECCF80915D03811178
:101F800027C080916203909163030E948206BE0184
:101F9000665F7F4F80916203909163030E941506F4
:101FA00040E064EB80916203909163030E94D3054B
:101FB00080916203909163030E944206082F8091F2
:101FC0006203909163030E948206002309F4F8C221
:101FD000BE016F5F7F4FCE010A960E94B10900914A
:101FE0005E03CE010A960E94500A801718F4809171
:101FF0005E0304C0CE010A960E94500A80935E03DD
:10200000809161038F5F80936103A3CF60E0CE0175
:1020100001960E941B0ACE0101960E94D40B61E03A
:10202000CE0101960E941B0ACE0101960E94D40B9C
:1020300062E0CE0101960E941B0ACE0101960E9429
:10204000D40B80E00E948C09109247031092480341
:102050001092490310924A03812C90E4992E9CE936
:10206000A92E95E4B92E80924B0390924C03A09236
:102070004D03B0924E0380914F03882309F455C05D
:102080000091330310913403F801C080D180E280C5
:10209000F380A5019401C701B6010E940E1618161F
:1020A00034F4F80180829182A282B3820EC020E0D3
:1020B00030E0A901C701B6010E94AF1487FF05C037
:1020C000F801108211821282138280903B0390905B
:1020D0003C03A0903D03B0903E03C0904B03D090D2
:1020E0004C03E0904D03F0904E03A7019601C5010B
:1020F000B4010E940E16181684F0C0904703D090C9
:102100004803E0904903F0904A03A7019601C501F6
:10211000B4010E94AF1487FF08C0C0923B03D09265
:102120003C03E0923D03F0923E03609143037091C3
:10213000440380914503909146030E945C159B01E6
:10214000AC0160E070E08AE794E40E94B4146B0193
:102150007C019B01AC016091270370912803809161
:10216000290390912A030E9413166093270370930A
:1021700028038093290390932A03A7019601609175
:102180002B0370912C0380912D0390912E030E94BC
:10219000B41460932B0370932C0380932D039093BE
:1021A0002E0388EE93E0A0E0B0E080934303909389
:1021B0004403A0934503B09346030E94940C01E0AE
:1021C00010E00E94880C6B017C010E944F0C0E9461
:1021D000830A609313037093140380931503909301
:1021E00016030E94880C4B015C0180919201909132
:1021F0009301A0919401B0919501A5019401281B30
:10220000390B4A0B5B0BDA01C90189389341A105EF
:10221000B10548F10E944F0C0E94830A609313039A
:102220007093140380931503909316030E94940CEB
:102230008092920190929301A0929401B0929501A4
:1022400080918E0190918F01A0919001B0919101A8
:102250000196A11DB11D80938E0190938F01A093D3
:102260009001B093910160910F03709110038091E0
:102270001103909112030E942615685A7D4F4B015D
:10228000A12CB12C0E94880C409092015090930197
:102290006090940170909501DC01CB01841995093F
:1022A000A609B709209196013091970188159905E3
:1022B000AA05BB0550F4232B91F481E00E948C0900
:1022C00010939701009396010AC02130310539F42B
:1022D000109297011092960180E00E948C090D2CBB
:1022E000000CEE08FF088091A2019091A301A0913B
:1022F000A401B091A501A7019601281B390B4A0B37
:102300005B0BDA01C901883E9340A105B10508F4D1
:1023100088C080919E0190919F01A091A001B091F1
:10232000A1010196A11DB11D80939E0190939F0173
:10233000A093A001B093A10140910F03509110030D
:10234000609111037091120322E086E692E00E94F0
:10235000C00164E671E086E692E00E94A702409127
:1023600092015091930160919401709195012AE03E
:1023700086E692E00E944E0164E671E086E692E015
:102380000E94A70240918E0150918F0160919001AF
:102390007091910177FF05C086E692E00E94970157
:1023A00005C02AE086E692E00E944E0164E671E0F4
:1023B00086E692E00E94A702409196015091970113
:1023C000052E000C660B770B77FF05C086E692E0C2
:1023D0000E94970105C02AE086E692E00E944E0125
:1023E00064E671E086E692E00E94A7024091130342
:1023F00050911403609115037091160322E086E654
:1024000092E00E94C00166E671E086E692E00E94DA
:10241000A702C092A201D092A301E092A401F0927F
:10242000A50180919A0190919B01A0919C01B0918E
:102430009D01A7019601281B390B4A0B5B0BDA01A2
:10244000C901803D9740A105B10508F4B6C060E020
:1024500080E00E945C0969E671E080E593E00E94FB
:10246000A7024091130350911403609115037091DA
:10247000160322E080E593E00E94C00160E083E162
:102480000E945C098091980190919901892B39F4FF
:10249000109399010093980164E671E006C01092D0
:1024A00099011092980162E771E080E593E00E9443
:1024B000A70261E080E00E945C0964E771E080E5CA
:1024C00093E00E94A70222E040E050E066E973E456
:1024D00080E593E00E94C00167E771E080E593E04A
:1024E0000E94A70222E040E050E060EA70E480E54C
:1024F00093E00E94C0016BE771E080E593E00E94E9
:10250000A70222E040E050E060E87FE380E593E04E
:102510000E94C00162E080E00E945C096FE771E008
:1025200080E593E00E94A7024091080150910901C3
:1025300060910A0170910B0122E080E593E00E9416
:10254000C00140E068E480E593E00E94450580E03A
:10255000A82E81E0B82EF50161915F0180E593E03E
:102560000E94C005F8E0AF16F1E0BF06A1F763E0F6
:1025700080E00E945C0964E871E080E593E00E94DD
:10258000A7024091960150919701052E000C660B11
:10259000770B77FF05C080E593E00E94970105C0A7
:1025A0002AE080E593E00E944E01C0929A01D09209
:1025B0009B01E0929C01F0929D010E94B50301CE27
:1025C00010935D0305CD0F931F93CF93DF9310926C
:1025D00069021092680288EE93E0A0E0B0E0809378
:1025E0006A0290936B02A0936C02B0936D022CE18F
:1025F00031E0309367022093660225EC30E030939F
:1026000073022093720224EC30E030937502209321
:10261000740220EC30E0309377022093760221ECB4
:1026200030E0309379022093780222EC30E030934E
:102630007B0220937A0226EC30E030937D022093D7
:102640007C0210927F0210928002109281021092FE
:102650008202109206031092050380930703909361
:102660000803A0930903B0930A038CE291E09093CE
:10267000040380930303E0EBF1E02491ECE9F1E043
:1026800084918823C1F090E0880F991FFC01EA57DC
:10269000FE4FC591D491FC01E458FE4FA591B49131
:1026A0009FB7F8948881E22FE0958E2388838C91E0
:1026B000E823EC939FBFE0EBF1E0E491E09371033A
:1026C000ECE9F1E0E491F0E0EE0FFF1FE057FE4F80
:1026D00085919491909373038093720310927C037D
:1026E00010927E0310927D03ECE7F3E0129283E0F8
:1026F000E437F807D9F785EA94E090936F03809365
:102700006E0381E793E090936303809362031092DA
:10271000610310925D0389E080935E0381E0809302
:102720005F038093600310925303109252038CE373
:1027300091E09093510380935003109259031092AB
:10274000540310925C038FE093E0909334038093E2
:10275000330383E193E0909332038093310388E065
:1027600091E0909336038093350310924F031092BB
:102770004703109248031092490310924A0380E0E5
:1027800090E0AFE7B3E480934B0390934C03A093A6
:102790004D03B0934E0384E690E0A0E0B0E0809358
:1027A000430390934403A0934503B09346031092D0
:1027B000300310922F0380E090E0A6E9B3E4809309
:1027C000170390931803A0931903B0931A0340E0E2
:1027D00050E060EA70E440931B0350931C03609345
:1027E0001D0370931E0340E050E060E87FE34093D8
:1027F0001F0350932003609321037093220380935F
:10280000230390932403A0932503B093260380E031
:1028100090E0A0E0BFE38093270390932803A09368
:102820002903B0932A0380E090E0A0E2B1E4809312
:102830002B0390932C03A0932D03B0932E030E949F
:10284000880C00914303109144032091450330917B
:102850004603DC01CB01801B910BA20BB30B8093D1
:10286000370390933803A0933903B0933A03DF9171
:10287000CF911F910F910895EE0FFF1F0590F491D6
:10288000E02D09945058BB27AA270E945A140C9493
:10289000D4150E94C61538F00E94CD1520F039F4E9
:1028A0009F3F19F426F40C94C3150EF4E095E7FB52
:1028B0000C94BD15E92F0E94E51558F3BA1762076D
:1028C00073078407950720F079F4A6F50C94071692
:1028D0000EF4E0950B2EBA2FA02D0B01B90190013B
:1028E0000C01CA01A0011124FF27591B99F0593F7F
:1028F00050F4503E68F11A16F040A22F232F342FC7
:102900004427585FF3CF469537952795A795F04014
:102910005395C9F77EF41F16BA0B620B730B840B29
:10292000BAF09150A1F0FF0FBB1F661F771F881FE1
:10293000C2F70EC0BA0F621F731F841F48F4879539
:1029400077956795B795F7959E3F08F0B0CF93952B
:10295000880F08F09927EE0F9795879508950E94A4
:10296000991508F481E008950E94C8140C94D415B8
:102970000E94CD1558F00E94C61540F029F45F3F23
:1029800029F00C94BD1551110C9408160C94C31524
:102990000E94E51568F39923B1F3552391F3951B34
:1029A000550BBB27AA2762177307840738F09F5F70
:1029B0005F4F220F331F441FAA1FA9F335D00E2EDD
:1029C0003AF0E0E832D091505040E695001CCAF74A
:1029D0002BD0FE2F29D0660F771F881FBB1F26170D
:1029E00037074807AB07B0E809F0BB0B802DBF01E4
:1029F000FF2793585F4F3AF09E3F510578F00C94B3
:102A0000BD150C9408165F3FE4F3983ED4F3869509
:102A100077956795B795F7959F5FC9F7880F911DD3
:102A20009695879597F90895E1E0660F771F881FBF
:102A3000BB1F621773078407BA0720F0621B730B72
:102A4000840BBA0BEE1F88F7E09508950E942D15B0
:102A50006894B1110C94081608950E94ED1588F041
:102A60009F5798F0B92F9927B751B0F0E1F0660F52
:102A7000771F881F991F1AF0BA95C9F714C0B13093
:102A800091F00E940716B1E008950C940716672F85
:102A9000782F8827B85F39F0B93FCCF386957795C2
:102AA0006795B395D9F73EF49095809570956195AB
:102AB0007F4F8F4F9F4F0895E89409C097FB3EF4D6
:102AC00090958095709561957F4F8F4F9F4F99237B
:102AD000A9F0F92F96E9BB279395F69587957795F9
:102AE0006795B795F111F8CFFAF4BB0F11F460FFB9
:102AF0001BC06F5F7F4F8F4F9F4F16C0882311F011
:102B000096E911C0772321F09EE8872F762F05C024
:102B1000662371F096E8862F70E060E02AF09A95BF
:102B2000660F771F881FDAF7880F9695879597F9B4
:102B30000895990F0008550FAA0BE0E8FEEF16164E
:102B40001706E807F907C0F012161306E407F507A1
:102B500098F0621B730B840B950B39F40A2661F015
:102B6000232B242B252B21F408950A2609F4A140B8
:102B7000A6958FEF811D811D089597F99F6780E8C5
:102B800070E060E008959FEF80EC089500240A94BF
:102B90001616170618060906089500240A94121638
:102BA0001306140605060895092E0394000C11F46B
:102BB000882352F0BB0F40F4BF2B11F460FF04C018
:102BC0006F5F7F4F8F4F9F4F089557FD9058440F71
:102BD000551F59F05F3F71F04795880F97FB991F7C
:102BE00061F09F3F79F08795089512161306140639
:102BF000551FF2CF4695F1DF08C0161617061806C6
:102C0000991FF1CF86957105610508940895E894A0
:102C1000BB2766277727CB0197F908950E9499155E
:102C200008F48FEF08950E9426160C94D4150E9484
:102C3000C61538F00E94CD1520F0952311F00C94A4
:102C4000BD150C94C31511240C9408160E94E515AB
:102C500070F3959FC1F3950F50E0551F629FF001EF
:102C6000729FBB27F00DB11D639FAA27F00DB11D08
:102C7000AA1F649F6627B00DA11D661F829F222791
:102C8000B00DA11D621F739FB00DA11D621F839F18
:102C9000A00D611D221F749F3327A00D611D231FEE
:102CA000849F600D211D822F762F6A2F11249F573C
:102CB00050409AF0F1F088234AF0EE0FFF1FBB1F3F
:102CC000661F771F881F91505040A9F79E3F5105FE
:102CD00080F00C94BD150C9408165F3FE4F3983E09
:102CE000D4F3869577956795B795F795E7959F5FA8
:102CF000C1F7FE2B880F911D9695879597F908953A
:102D00000E949915880B990B089581E090E0F89442
:102D10000C94AC16A1E21A2EAA1BBB1BFD010DC020
:102D2000AA1FBB1FEE1FFF1FA217B307E407F5077B
:102D300020F0A21BB30BE40BF50B661F771F881F57
:102D4000991F1A9469F760957095809590959B01ED
:0C2D5000AC01BD01CF010895F894FFCF45
:102D5C000609090600000000000070420100000096
:102D6C000000400014005400000000004C030C0153
:102D7C001F03FD02110393030000000076044604B8
:102D8C000C04FD03EF03EE0300000000C0050C0172
:102D9C00000096430000A0400000803F6E616E0072
:102DAC00696E66006F7666002E00536F7573205641
:102DBC00696465007C000D0A0057617465722020FF
:102DCC003A002D00503A0020493A0020443A005372
:0C2DDC0065743A0052656C61793A0000A1
:00000001FF
